{
  "contractName": "Election",
  "abi": [
    {
      "inputs": [],
      "payable": false,
      "stateMutability": "nonpayable",
      "type": "constructor"
    },
    {
      "anonymous": false,
      "inputs": [
        {
          "indexed": true,
          "internalType": "uint256",
          "name": "id",
          "type": "uint256"
        }
      ],
      "name": "votedEvent",
      "type": "event"
    },
    {
      "constant": true,
      "inputs": [
        {
          "internalType": "uint256",
          "name": "",
          "type": "uint256"
        }
      ],
      "name": "candidates",
      "outputs": [
        {
          "internalType": "uint256",
          "name": "id",
          "type": "uint256"
        },
        {
          "internalType": "string",
          "name": "name",
          "type": "string"
        },
        {
          "internalType": "uint256",
          "name": "voteCount",
          "type": "uint256"
        }
      ],
      "payable": false,
      "stateMutability": "view",
      "type": "function"
    },
    {
      "constant": true,
      "inputs": [],
      "name": "candidatesCount",
      "outputs": [
        {
          "internalType": "uint256",
          "name": "",
          "type": "uint256"
        }
      ],
      "payable": false,
      "stateMutability": "view",
      "type": "function"
    },
    {
      "constant": true,
      "inputs": [
        {
          "internalType": "address",
          "name": "",
          "type": "address"
        }
      ],
      "name": "voters",
      "outputs": [
        {
          "internalType": "bool",
          "name": "",
          "type": "bool"
        }
      ],
      "payable": false,
      "stateMutability": "view",
      "type": "function"
    },
    {
      "constant": false,
      "inputs": [
        {
          "internalType": "string",
          "name": "name",
          "type": "string"
        }
      ],
      "name": "addCandidate",
      "outputs": [],
      "payable": false,
      "stateMutability": "nonpayable",
      "type": "function"
    },
    {
      "constant": false,
      "inputs": [
        {
          "internalType": "uint256",
          "name": "id",
          "type": "uint256"
        }
      ],
      "name": "vote",
      "outputs": [],
      "payable": false,
      "stateMutability": "nonpayable",
      "type": "function"
    },
    {
      "constant": true,
      "inputs": [],
      "name": "winningCandidate",
      "outputs": [
        {
          "internalType": "uint256",
          "name": "candidateIndex",
          "type": "uint256"
        }
      ],
      "payable": false,
      "stateMutability": "view",
      "type": "function"
    },
    {
      "constant": true,
      "inputs": [],
      "name": "pickWinner",
      "outputs": [
        {
          "internalType": "string",
          "name": "name",
          "type": "string"
        }
      ],
      "payable": false,
      "stateMutability": "view",
      "type": "function"
    }
  ],
  "bytecode": "0x608060405234801561001057600080fd5b506107ba806100206000396000f3fe608060405234801561001057600080fd5b506004361061007d5760003560e01c8063462e91ec1161005b578063462e91ec146101835780635d495aea1461023e578063a3ec138d146102c1578063d28178d71461031d5761007d565b80630121b93f146100825780632d35a8a2146100b05780633477ee2e146100ce575b600080fd5b6100ae6004803603602081101561009857600080fd5b810190808035906020019092919050505061033b565b005b6100b861045c565b6040518082815260200191505060405180910390f35b6100fa600480360360208110156100e457600080fd5b8101908080359060200190929190505050610462565b6040518084815260200180602001838152602001828103825284818151815260200191508051906020019080838360005b8381101561014657808201518184015260208101905061012b565b50505050905090810190601f1680156101735780820380516001836020036101000a031916815260200191505b5094505050505060405180910390f35b61023c6004803603602081101561019957600080fd5b81019080803590602001906401000000008111156101b657600080fd5b8201836020820111156101c857600080fd5b803590602001918460018302840111640100000000831117156101ea57600080fd5b91908080601f016020809104026020016040519081016040528093929190818152602001838380828437600081840152601f19601f820116905080830192505050505050509192919290505050610524565b005b6102466105a0565b6040518080602001828103825283818151815260200191508051906020019080838360005b8381101561028657808201518184015260208101905061026b565b50505050905090810190601f1680156102b35780820380516001836020036101000a031916815260200191505b509250505060405180910390f35b610303600480360360208110156102d757600080fd5b81019080803573ffffffffffffffffffffffffffffffffffffffff16906020019092919050505061065d565b604051808215151515815260200191505060405180910390f35b61032561067d565b6040518082815260200191505060405180910390f35b8090506000803373ffffffffffffffffffffffffffffffffffffffff1673ffffffffffffffffffffffffffffffffffffffff16815260200190815260200160002060009054906101000a900460ff161561039457600080fd5b6000811180156103a657506002548111155b6103af57600080fd5b60016000803373ffffffffffffffffffffffffffffffffffffffff1673ffffffffffffffffffffffffffffffffffffffff16815260200190815260200160002060006101000a81548160ff0219169083151502179055506001600082815260200190815260200160002060020160008154809291906001019190505550807ffff3c900d938d21d0990d786e819f29b8d05c1ef587b462b939609625b684b1660405160405180910390a250565b60025481565b6001602052806000526040600020600091509050806000015490806001018054600181600116156101000203166002900480601f0160208091040260200160405190810160405280929190818152602001828054600181600116156101000203166002900480156105145780601f106104e957610100808354040283529160200191610514565b820191906000526020600020905b8154815290600101906020018083116104f757829003601f168201915b5050505050908060020154905083565b60026000815480929190600101919050555060405180606001604052806002548152602001828152602001600081525060016000600254815260200190815260200160002060008201518160000155602082015181600101908051906020019061058f9291906106e0565b506040820151816002015590505050565b6060600160006105ae61067d565b81526020019081526020016000206001018054600181600116156101000203166002900480601f0160208091040260200160405190810160405280929190818152602001828054600181600116156101000203166002900480156106535780601f1061062857610100808354040283529160200191610653565b820191906000526020600020905b81548152906001019060200180831161063657829003601f168201915b5050505050905090565b60006020528060005260406000206000915054906101000a900460ff1681565b6000806000905060008090505b60025481116106db5781600160008381526020019081526020016000206002015411156106ce57600160008281526020019081526020016000206002015491508092505b808060010191505061068a565b505090565b828054600181600116156101000203166002900490600052602060002090601f016020900481019282601f1061072157805160ff191683800117855561074f565b8280016001018555821561074f579182015b8281111561074e578251825591602001919060010190610733565b5b50905061075c9190610760565b5090565b61078291905b8082111561077e576000816000905550600101610766565b5090565b9056fea265627a7a72315820b3967e885c5c3f0b8eafc03a9b0e5da3e8914a1773449758c5e89683d3e0f31464736f6c63430005100032",
  "source": "pragma solidity >=0.5.16;\r\n\r\ncontract Election{\r\n\r\n    //Will model a learning material candidate\r\n    struct Candidate {\r\n        //TODO: Add more attribtes. Author, Price, Description\r\n        uint id;\r\n        string name;\r\n        uint voteCount;\r\n    }\r\n\r\n    // Store accounts that have voted\r\n    mapping(address => bool) public voters;\r\n    // Read/write candidates\r\n    mapping(uint => Candidate) public candidates;\r\n    // Store Candidates Count\r\n    uint public candidatesCount; //changed to = 0\r\n\r\n    // educational material added event\r\n    // event edMaterialAddedEvent(\r\n    //     string name\r\n    // );\r\n\r\n    //Trigress when a vote is addred\r\n    event votedEvent(\r\n        uint indexed id\r\n    );\r\n\r\n    constructor () public {\r\n    }\r\n\r\n    function addCandidate(string memory name) public { \r\n    \t \r\n        candidatesCount ++;\r\n        //candidates[candidatesCount] = Candidate(candidatesCount, _candidateNa, 0);\r\n        candidates[candidatesCount] = Candidate(candidatesCount, name, 0);\r\n\r\n       //trigger added ed material event\r\n      //emit edMaterialAddedEvent(name);\r\n\r\n    }\r\n\r\n    function vote (uint id) public {\r\n        \tid = id;\r\n        // require that they haven't voted beforecandidates[candidatesCount].name()\r\n        require(!voters[msg.sender]);\r\n\r\n        // require a valid candidate\r\n        require(id > 0 && id <= candidatesCount);\r\n\r\n        // record that voter has voted\r\n        voters[msg.sender] = true;\r\n\r\n        // update candidate vote Count\r\n        candidates[id].voteCount ++;\r\n\r\n        // trigger voted event\r\n       emit votedEvent(id);\r\n\r\n    }\r\n\r\n   /// TODO: in app.js Computes the winning proposal taking all\r\n    /// previous votes into account.\r\n    function winningCandidate() public view\r\n            returns (uint candidateIndex)\r\n    {\r\n        uint winningVoteCount = 0;\r\n        for (uint p = 0; p <= candidatesCount; p++) {\r\n            if (candidates[p].voteCount > winningVoteCount) {\r\n                winningVoteCount = candidates[p].voteCount;\r\n                \r\n                candidateIndex = p;\r\n            }\r\n        }\r\n    }\r\n\r\n    // TODO: In App.js  function to get the index\r\n    // of the winner contained in the proposals array and then\r\n    // returns the name of the winner\r\n    function pickWinner() public view returns (string memory name)\r\n    {\r\n        name = candidates[winningCandidate()].name;\r\n    }\r\n\r\n\r\n}",
  "sourcePath": "C:\\Users\\Juan\\election\\contracts\\Election.sol",
  "compiler": {
    "name": "solc",
    "version": "0.5.16+commit.9c3226ce.Emscripten.clang"
  },
  "schemaVersion": "3.1.0",
  "updatedAt": "2020-05-05T22:16:12.495Z",
  "networkType": "ethereum",
  "devdoc": {
    "methods": {}
  },
  "userdoc": {
    "methods": {
      "winningCandidate()": {
        "notice": "TODO: in app.js Computes the winning proposal taking all previous votes into account."
      }
    }
  }
}